{
  "contractName": "DanyToken",
  "abi": [
    {
      "inputs": [],
      "stateMutability": "nonpayable",
      "type": "constructor"
    },
    {
      "inputs": [
        {
          "internalType": "address",
          "name": "spender",
          "type": "address"
        },
        {
          "internalType": "uint256",
          "name": "allowance",
          "type": "uint256"
        },
        {
          "internalType": "uint256",
          "name": "needed",
          "type": "uint256"
        }
      ],
      "name": "ERC20InsufficientAllowance",
      "type": "error"
    },
    {
      "inputs": [
        {
          "internalType": "address",
          "name": "sender",
          "type": "address"
        },
        {
          "internalType": "uint256",
          "name": "balance",
          "type": "uint256"
        },
        {
          "internalType": "uint256",
          "name": "needed",
          "type": "uint256"
        }
      ],
      "name": "ERC20InsufficientBalance",
      "type": "error"
    },
    {
      "inputs": [
        {
          "internalType": "address",
          "name": "approver",
          "type": "address"
        }
      ],
      "name": "ERC20InvalidApprover",
      "type": "error"
    },
    {
      "inputs": [
        {
          "internalType": "address",
          "name": "receiver",
          "type": "address"
        }
      ],
      "name": "ERC20InvalidReceiver",
      "type": "error"
    },
    {
      "inputs": [
        {
          "internalType": "address",
          "name": "sender",
          "type": "address"
        }
      ],
      "name": "ERC20InvalidSender",
      "type": "error"
    },
    {
      "inputs": [
        {
          "internalType": "address",
          "name": "spender",
          "type": "address"
        }
      ],
      "name": "ERC20InvalidSpender",
      "type": "error"
    },
    {
      "anonymous": false,
      "inputs": [
        {
          "indexed": true,
          "internalType": "address",
          "name": "owner",
          "type": "address"
        },
        {
          "indexed": true,
          "internalType": "address",
          "name": "spender",
          "type": "address"
        },
        {
          "indexed": false,
          "internalType": "uint256",
          "name": "value",
          "type": "uint256"
        }
      ],
      "name": "Approval",
      "type": "event"
    },
    {
      "anonymous": false,
      "inputs": [
        {
          "indexed": true,
          "internalType": "address",
          "name": "from",
          "type": "address"
        },
        {
          "indexed": true,
          "internalType": "address",
          "name": "to",
          "type": "address"
        },
        {
          "indexed": false,
          "internalType": "uint256",
          "name": "value",
          "type": "uint256"
        }
      ],
      "name": "Transfer",
      "type": "event"
    },
    {
      "inputs": [],
      "name": "MAX_MINT_PER_ADDRESS",
      "outputs": [
        {
          "internalType": "uint256",
          "name": "",
          "type": "uint256"
        }
      ],
      "stateMutability": "view",
      "type": "function"
    },
    {
      "inputs": [],
      "name": "MAX_SUPPLY",
      "outputs": [
        {
          "internalType": "uint256",
          "name": "",
          "type": "uint256"
        }
      ],
      "stateMutability": "view",
      "type": "function"
    },
    {
      "inputs": [
        {
          "internalType": "address",
          "name": "owner",
          "type": "address"
        },
        {
          "internalType": "address",
          "name": "spender",
          "type": "address"
        }
      ],
      "name": "allowance",
      "outputs": [
        {
          "internalType": "uint256",
          "name": "",
          "type": "uint256"
        }
      ],
      "stateMutability": "view",
      "type": "function"
    },
    {
      "inputs": [
        {
          "internalType": "address",
          "name": "spender",
          "type": "address"
        },
        {
          "internalType": "uint256",
          "name": "value",
          "type": "uint256"
        }
      ],
      "name": "approve",
      "outputs": [
        {
          "internalType": "bool",
          "name": "",
          "type": "bool"
        }
      ],
      "stateMutability": "nonpayable",
      "type": "function"
    },
    {
      "inputs": [
        {
          "internalType": "address",
          "name": "account",
          "type": "address"
        }
      ],
      "name": "balanceOf",
      "outputs": [
        {
          "internalType": "uint256",
          "name": "",
          "type": "uint256"
        }
      ],
      "stateMutability": "view",
      "type": "function"
    },
    {
      "inputs": [],
      "name": "decimals",
      "outputs": [
        {
          "internalType": "uint8",
          "name": "",
          "type": "uint8"
        }
      ],
      "stateMutability": "view",
      "type": "function"
    },
    {
      "inputs": [
        {
          "internalType": "address",
          "name": "",
          "type": "address"
        }
      ],
      "name": "mintedAmounts",
      "outputs": [
        {
          "internalType": "uint256",
          "name": "",
          "type": "uint256"
        }
      ],
      "stateMutability": "view",
      "type": "function"
    },
    {
      "inputs": [],
      "name": "name",
      "outputs": [
        {
          "internalType": "string",
          "name": "",
          "type": "string"
        }
      ],
      "stateMutability": "view",
      "type": "function"
    },
    {
      "inputs": [],
      "name": "symbol",
      "outputs": [
        {
          "internalType": "string",
          "name": "",
          "type": "string"
        }
      ],
      "stateMutability": "view",
      "type": "function"
    },
    {
      "inputs": [],
      "name": "totalSupply",
      "outputs": [
        {
          "internalType": "uint256",
          "name": "",
          "type": "uint256"
        }
      ],
      "stateMutability": "view",
      "type": "function"
    },
    {
      "inputs": [
        {
          "internalType": "address",
          "name": "to",
          "type": "address"
        },
        {
          "internalType": "uint256",
          "name": "value",
          "type": "uint256"
        }
      ],
      "name": "transfer",
      "outputs": [
        {
          "internalType": "bool",
          "name": "",
          "type": "bool"
        }
      ],
      "stateMutability": "nonpayable",
      "type": "function"
    },
    {
      "inputs": [
        {
          "internalType": "address",
          "name": "from",
          "type": "address"
        },
        {
          "internalType": "address",
          "name": "to",
          "type": "address"
        },
        {
          "internalType": "uint256",
          "name": "value",
          "type": "uint256"
        }
      ],
      "name": "transferFrom",
      "outputs": [
        {
          "internalType": "bool",
          "name": "",
          "type": "bool"
        }
      ],
      "stateMutability": "nonpayable",
      "type": "function"
    },
    {
      "inputs": [
        {
          "internalType": "uint256",
          "name": "value",
          "type": "uint256"
        }
      ],
      "name": "mint",
      "outputs": [],
      "stateMutability": "nonpayable",
      "type": "function"
    },
    {
      "inputs": [
        {
          "internalType": "uint256",
          "name": "value",
          "type": "uint256"
        }
      ],
      "name": "burn",
      "outputs": [],
      "stateMutability": "nonpayable",
      "type": "function"
    }
  ],
  "bytecode": "0x608060405234801562000010575f80fd5b506040518060400160405280600981526020017f44616e79546f6b656e00000000000000000000000000000000000000000000008152506040518060400160405280600281526020017f445400000000000000000000000000000000000000000000000000000000000081525081600390816200008e9190620005d9565b508060049081620000a09190620005d9565b505050620000c1336b033b2e3c9fd0803ce8000000620000c760201b60201c565b620007e9565b5f73ffffffffffffffffffffffffffffffffffffffff168273ffffffffffffffffffffffffffffffffffffffff16036200013a575f6040517fec442f0500000000000000000000000000000000000000000000000000000000815260040162000131919062000700565b60405180910390fd5b6200014d5f83836200015160201b60201c565b5050565b5f73ffffffffffffffffffffffffffffffffffffffff168373ffffffffffffffffffffffffffffffffffffffff1603620001a5578060025f82825462000198919062000748565b9250508190555062000276565b5f805f8573ffffffffffffffffffffffffffffffffffffffff1673ffffffffffffffffffffffffffffffffffffffff1681526020019081526020015f205490508181101562000231578381836040517fe450d38c000000000000000000000000000000000000000000000000000000008152600401620002289392919062000793565b60405180910390fd5b8181035f808673ffffffffffffffffffffffffffffffffffffffff1673ffffffffffffffffffffffffffffffffffffffff1681526020019081526020015f2081905550505b5f73ffffffffffffffffffffffffffffffffffffffff168273ffffffffffffffffffffffffffffffffffffffff1603620002bf578060025f828254039250508190555062000309565b805f808473ffffffffffffffffffffffffffffffffffffffff1673ffffffffffffffffffffffffffffffffffffffff1681526020019081526020015f205f82825401925050819055505b8173ffffffffffffffffffffffffffffffffffffffff168373ffffffffffffffffffffffffffffffffffffffff167fddf252ad1be2c89b69c2b068fc378daa952ba7f163c4a11628f55a4df523b3ef83604051620003689190620007ce565b60405180910390a3505050565b5f81519050919050565b7f4e487b71000000000000000000000000000000000000000000000000000000005f52604160045260245ffd5b7f4e487b71000000000000000000000000000000000000000000000000000000005f52602260045260245ffd5b5f6002820490506001821680620003f157607f821691505b602082108103620004075762000406620003ac565b5b50919050565b5f819050815f5260205f209050919050565b5f6020601f8301049050919050565b5f82821b905092915050565b5f600883026200046b7fffffffffffffffffffffffffffffffffffffffffffffffffffffffffffffffff826200042e565b6200047786836200042e565b95508019841693508086168417925050509392505050565b5f819050919050565b5f819050919050565b5f620004c1620004bb620004b5846200048f565b62000498565b6200048f565b9050919050565b5f819050919050565b620004dc83620004a1565b620004f4620004eb82620004c8565b8484546200043a565b825550505050565b5f90565b6200050a620004fc565b62000517818484620004d1565b505050565b5b818110156200053e57620005325f8262000500565b6001810190506200051d565b5050565b601f8211156200058d5762000557816200040d565b62000562846200041f565b8101602085101562000572578190505b6200058a62000581856200041f565b8301826200051c565b50505b505050565b5f82821c905092915050565b5f620005af5f198460080262000592565b1980831691505092915050565b5f620005c983836200059e565b9150826002028217905092915050565b620005e48262000375565b67ffffffffffffffff8111156200060057620005ff6200037f565b5b6200060c8254620003d9565b6200061982828562000542565b5f60209050601f8311600181146200064f575f84156200063a578287015190505b620006468582620005bc565b865550620006b5565b601f1984166200065f866200040d565b5f5b82811015620006885784890151825560018201915060208501945060208101905062000661565b86831015620006a85784890151620006a4601f8916826200059e565b8355505b6001600288020188555050505b505050505050565b5f73ffffffffffffffffffffffffffffffffffffffff82169050919050565b5f620006e882620006bd565b9050919050565b620006fa81620006dc565b82525050565b5f602082019050620007155f830184620006ef565b92915050565b7f4e487b71000000000000000000000000000000000000000000000000000000005f52601160045260245ffd5b5f62000754826200048f565b915062000761836200048f565b92508282019050808211156200077c576200077b6200071b565b5b92915050565b6200078d816200048f565b82525050565b5f606082019050620007a85f830186620006ef565b620007b7602083018562000782565b620007c6604083018462000782565b949350505050565b5f602082019050620007e35f83018462000782565b92915050565b6113a880620007f75f395ff3fe608060405234801561000f575f80fd5b50600436106100e8575f3560e01c806342966c681161008a57806395d89b411161006457806395d89b411461025e578063a0712d681461027c578063a9059cbb14610298578063dd62ed3e146102c8576100e8565b806342966c68146101e25780636ef0d855146101fe57806370a082311461022e576100e8565b806323b872dd116100c657806323b872dd14610158578063313ce5671461018857806332cb6b0c146101a65780633acd6cb2146101c4576100e8565b806306fdde03146100ec578063095ea7b31461010a57806318160ddd1461013a575b5f80fd5b6100f46102f8565b6040516101019190610e4c565b60405180910390f35b610124600480360381019061011f9190610efd565b610388565b6040516101319190610f55565b60405180910390f35b6101426103aa565b60405161014f9190610f7d565b60405180910390f35b610172600480360381019061016d9190610f96565b6103b3565b60405161017f9190610f55565b60405180910390f35b6101906103e1565b60405161019d9190611001565b60405180910390f35b6101ae6103e9565b6040516101bb9190610f7d565b60405180910390f35b6101cc6103f9565b6040516101d99190610f7d565b60405180910390f35b6101fc60048036038101906101f7919061101a565b610408565b005b61021860048036038101906102139190611045565b610415565b6040516102259190610f7d565b60405180910390f35b61024860048036038101906102439190611045565b61042a565b6040516102559190610f7d565b60405180910390f35b61026661046f565b6040516102739190610e4c565b60405180910390f35b6102966004803603810190610291919061101a565b6104ff565b005b6102b260048036038101906102ad9190610efd565b61069d565b6040516102bf9190610f55565b60405180910390f35b6102e260048036038101906102dd9190611070565b6106bf565b6040516102ef9190610f7d565b60405180910390f35b606060038054610307906110db565b80601f0160208091040260200160405190810160405280929190818152602001828054610333906110db565b801561037e5780601f106103555761010080835404028352916020019161037e565b820191905f5260205f20905b81548152906001019060200180831161036157829003601f168201915b5050505050905090565b5f80610392610741565b905061039f818585610748565b600191505092915050565b5f600254905090565b5f806103bd610741565b90506103ca85828561075a565b6103d58585856107ec565b60019150509392505050565b5f6012905090565b6b19d971e4fe8401e74000000081565b6a069e10de76676d0800000081565b61041233826108dc565b50565b6005602052805f5260405f205f915090505481565b5f805f8373ffffffffffffffffffffffffffffffffffffffff1673ffffffffffffffffffffffffffffffffffffffff1681526020019081526020015f20549050919050565b60606004805461047e906110db565b80601f01602080910402602001604051908101604052809291908181526020018280546104aa906110db565b80156104f55780601f106104cc576101008083540402835291602001916104f5565b820191905f5260205f20905b8154815290600101906020018083116104d857829003601f168201915b5050505050905090565b5f8111610541576040517f08c379a00000000000000000000000000000000000000000000000000000000081526004016105389061117b565b60405180910390fd5b5f60055f3373ffffffffffffffffffffffffffffffffffffffff1673ffffffffffffffffffffffffffffffffffffffff1681526020019081526020015f205490506a069e10de76676d08000000828261059a91906111c6565b11156105db576040517f08c379a00000000000000000000000000000000000000000000000000000000081526004016105d290611269565b60405180910390fd5b6b19d971e4fe8401e740000000826105f16103aa565b6105fb91906111c6565b111561063c576040517f08c379a0000000000000000000000000000000000000000000000000000000008152600401610633906112f7565b60405180910390fd5b8160055f3373ffffffffffffffffffffffffffffffffffffffff1673ffffffffffffffffffffffffffffffffffffffff1681526020019081526020015f205f82825461068891906111c6565b92505081905550610699338361095b565b5050565b5f806106a7610741565b90506106b48185856107ec565b600191505092915050565b5f60015f8473ffffffffffffffffffffffffffffffffffffffff1673ffffffffffffffffffffffffffffffffffffffff1681526020019081526020015f205f8373ffffffffffffffffffffffffffffffffffffffff1673ffffffffffffffffffffffffffffffffffffffff1681526020019081526020015f2054905092915050565b5f33905090565b61075583838360016109da565b505050565b5f61076584846106bf565b90507fffffffffffffffffffffffffffffffffffffffffffffffffffffffffffffffff81146107e657818110156107d7578281836040517ffb8f41b20000000000000000000000000000000000000000000000000000000081526004016107ce93929190611324565b60405180910390fd5b6107e584848484035f6109da565b5b50505050565b5f73ffffffffffffffffffffffffffffffffffffffff168373ffffffffffffffffffffffffffffffffffffffff160361085c575f6040517f96c6fd1e0000000000000000000000000000000000000000000000000000000081526004016108539190611359565b60405180910390fd5b5f73ffffffffffffffffffffffffffffffffffffffff168273ffffffffffffffffffffffffffffffffffffffff16036108cc575f6040517fec442f050000000000000000000000000000000000000000000000000000000081526004016108c39190611359565b60405180910390fd5b6108d7838383610ba9565b505050565b5f73ffffffffffffffffffffffffffffffffffffffff168273ffffffffffffffffffffffffffffffffffffffff160361094c575f6040517f96c6fd1e0000000000000000000000000000000000000000000000000000000081526004016109439190611359565b60405180910390fd5b610957825f83610ba9565b5050565b5f73ffffffffffffffffffffffffffffffffffffffff168273ffffffffffffffffffffffffffffffffffffffff16036109cb575f6040517fec442f050000000000000000000000000000000000000000000000000000000081526004016109c29190611359565b60405180910390fd5b6109d65f8383610ba9565b5050565b5f73ffffffffffffffffffffffffffffffffffffffff168473ffffffffffffffffffffffffffffffffffffffff1603610a4a575f6040517fe602df05000000000000000000000000000000000000000000000000000000008152600401610a419190611359565b60405180910390fd5b5f73ffffffffffffffffffffffffffffffffffffffff168373ffffffffffffffffffffffffffffffffffffffff1603610aba575f6040517f94280d62000000000000000000000000000000000000000000000000000000008152600401610ab19190611359565b60405180910390fd5b8160015f8673ffffffffffffffffffffffffffffffffffffffff1673ffffffffffffffffffffffffffffffffffffffff1681526020019081526020015f205f8573ffffffffffffffffffffffffffffffffffffffff1673ffffffffffffffffffffffffffffffffffffffff1681526020019081526020015f20819055508015610ba3578273ffffffffffffffffffffffffffffffffffffffff168473ffffffffffffffffffffffffffffffffffffffff167f8c5be1e5ebec7d5bd14f71427d1e84f3dd0314c0f7b2291e5b200ac8c7c3b92584604051610b9a9190610f7d565b60405180910390a35b50505050565b5f73ffffffffffffffffffffffffffffffffffffffff168373ffffffffffffffffffffffffffffffffffffffff1603610bf9578060025f828254610bed91906111c6565b92505081905550610cc7565b5f805f8573ffffffffffffffffffffffffffffffffffffffff1673ffffffffffffffffffffffffffffffffffffffff1681526020019081526020015f2054905081811015610c82578381836040517fe450d38c000000000000000000000000000000000000000000000000000000008152600401610c7993929190611324565b60405180910390fd5b8181035f808673ffffffffffffffffffffffffffffffffffffffff1673ffffffffffffffffffffffffffffffffffffffff1681526020019081526020015f2081905550505b5f73ffffffffffffffffffffffffffffffffffffffff168273ffffffffffffffffffffffffffffffffffffffff1603610d0e578060025f8282540392505081905550610d58565b805f808473ffffffffffffffffffffffffffffffffffffffff1673ffffffffffffffffffffffffffffffffffffffff1681526020019081526020015f205f82825401925050819055505b8173ffffffffffffffffffffffffffffffffffffffff168373ffffffffffffffffffffffffffffffffffffffff167fddf252ad1be2c89b69c2b068fc378daa952ba7f163c4a11628f55a4df523b3ef83604051610db59190610f7d565b60405180910390a3505050565b5f81519050919050565b5f82825260208201905092915050565b5f5b83811015610df9578082015181840152602081019050610dde565b5f8484015250505050565b5f601f19601f8301169050919050565b5f610e1e82610dc2565b610e288185610dcc565b9350610e38818560208601610ddc565b610e4181610e04565b840191505092915050565b5f6020820190508181035f830152610e648184610e14565b905092915050565b5f80fd5b5f73ffffffffffffffffffffffffffffffffffffffff82169050919050565b5f610e9982610e70565b9050919050565b610ea981610e8f565b8114610eb3575f80fd5b50565b5f81359050610ec481610ea0565b92915050565b5f819050919050565b610edc81610eca565b8114610ee6575f80fd5b50565b5f81359050610ef781610ed3565b92915050565b5f8060408385031215610f1357610f12610e6c565b5b5f610f2085828601610eb6565b9250506020610f3185828601610ee9565b9150509250929050565b5f8115159050919050565b610f4f81610f3b565b82525050565b5f602082019050610f685f830184610f46565b92915050565b610f7781610eca565b82525050565b5f602082019050610f905f830184610f6e565b92915050565b5f805f60608486031215610fad57610fac610e6c565b5b5f610fba86828701610eb6565b9350506020610fcb86828701610eb6565b9250506040610fdc86828701610ee9565b9150509250925092565b5f60ff82169050919050565b610ffb81610fe6565b82525050565b5f6020820190506110145f830184610ff2565b92915050565b5f6020828403121561102f5761102e610e6c565b5b5f61103c84828501610ee9565b91505092915050565b5f6020828403121561105a57611059610e6c565b5b5f61106784828501610eb6565b91505092915050565b5f806040838503121561108657611085610e6c565b5b5f61109385828601610eb6565b92505060206110a485828601610eb6565b9150509250929050565b7f4e487b71000000000000000000000000000000000000000000000000000000005f52602260045260245ffd5b5f60028204905060018216806110f257607f821691505b602082108103611105576111046110ae565b5b50919050565b7f44616e79546f6b656e3a206d696e742076616c7565206d7573742062652067725f8201527f6561746572207468616e207a65726f0000000000000000000000000000000000602082015250565b5f611165602f83610dcc565b91506111708261110b565b604082019050919050565b5f6020820190508181035f83015261119281611159565b9050919050565b7f4e487b71000000000000000000000000000000000000000000000000000000005f52601160045260245ffd5b5f6111d082610eca565b91506111db83610eca565b92508282019050808211156111f3576111f2611199565b5b92915050565b7f44616e79546f6b656e3a206d6178206d696e74206c696d6974206578636565645f8201527f6564207065722061646472657373000000000000000000000000000000000000602082015250565b5f611253602e83610dcc565b915061125e826111f9565b604082019050919050565b5f6020820190508181035f83015261128081611247565b9050919050565b7f44616e79546f6b656e3a206d617820746f74616c20737570706c7920657863655f8201527f6564656400000000000000000000000000000000000000000000000000000000602082015250565b5f6112e1602483610dcc565b91506112ec82611287565b604082019050919050565b5f6020820190508181035f83015261130e816112d5565b9050919050565b61131e81610e8f565b82525050565b5f6060820190506113375f830186611315565b6113446020830185610f6e565b6113516040830184610f6e565b949350505050565b5f60208201905061136c5f830184611315565b9291505056fea2646970667358221220ccf84f990f00b60cd880f54b25098729906da71b4c88f651193ab254fb4c746564736f6c63430008150033",
  "immutableReferences": {},
  "source": "// SPDX-License-Identifier: MIT\npragma solidity ^0.8.0;\n\nimport \"@openzeppelin/contracts/token/ERC20/ERC20.sol\";\n\ncontract DanyToken is ERC20 {\n    uint256 public constant MAX_SUPPLY = 8e9 * 1e18;\n    uint256 public constant MAX_MINT_PER_ADDRESS = 8e6 * 1e18;\n\n    mapping(address => uint256) public mintedAmounts;\n\n    constructor() ERC20(\"DanyToken\", \"DT\") {\n        _mint(msg.sender, 1e9 * 1e18);\n    }\n\n    function mint(uint256 value) public {\n        require(value > 0, \"DanyToken: mint value must be greater than zero\");\n        uint256 alreadyMinted = mintedAmounts[msg.sender];\n        require(alreadyMinted + value <= MAX_MINT_PER_ADDRESS, \"DanyToken: max mint limit exceeded per address\");\n        require(totalSupply() + value <= MAX_SUPPLY, \"DanyToken: max total supply exceeded\");\n\n        mintedAmounts[msg.sender] += value;\n        _mint(msg.sender, value);\n    }\n\n    function burn(uint256 value) public {\n        _burn(msg.sender, value);\n    }\n}\n",
  "sourcePath": "/Users/dany/My Projects/DanyToken/contracts/DanyToken.sol",
  "compiler": {
    "name": "solc",
    "version": "0.8.21+commit.d9974bed.Emscripten.clang"
  },
  "schemaVersion": "3.4.16",
  "updatedAt": "2023-12-08T17:44:27.621Z",
  "devdoc": {
    "errors": {
      "ERC20InsufficientAllowance(address,uint256,uint256)": [
        {
          "details": "Indicates a failure with the `spender`s `allowance`. Used in transfers.",
          "params": {
            "allowance": "Amount of tokens a `spender` is allowed to operate with.",
            "needed": "Minimum amount required to perform a transfer.",
            "spender": "Address that may be allowed to operate on tokens without being their owner."
          }
        }
      ],
      "ERC20InsufficientBalance(address,uint256,uint256)": [
        {
          "details": "Indicates an error related to the current `balance` of a `sender`. Used in transfers.",
          "params": {
            "balance": "Current balance for the interacting account.",
            "needed": "Minimum amount required to perform a transfer.",
            "sender": "Address whose tokens are being transferred."
          }
        }
      ],
      "ERC20InvalidApprover(address)": [
        {
          "details": "Indicates a failure with the `approver` of a token to be approved. Used in approvals.",
          "params": {
            "approver": "Address initiating an approval operation."
          }
        }
      ],
      "ERC20InvalidReceiver(address)": [
        {
          "details": "Indicates a failure with the token `receiver`. Used in transfers.",
          "params": {
            "receiver": "Address to which tokens are being transferred."
          }
        }
      ],
      "ERC20InvalidSender(address)": [
        {
          "details": "Indicates a failure with the token `sender`. Used in transfers.",
          "params": {
            "sender": "Address whose tokens are being transferred."
          }
        }
      ],
      "ERC20InvalidSpender(address)": [
        {
          "details": "Indicates a failure with the `spender` to be approved. Used in approvals.",
          "params": {
            "spender": "Address that may be allowed to operate on tokens without being their owner."
          }
        }
      ]
    },
    "events": {
      "Approval(address,address,uint256)": {
        "details": "Emitted when the allowance of a `spender` for an `owner` is set by a call to {approve}. `value` is the new allowance."
      },
      "Transfer(address,address,uint256)": {
        "details": "Emitted when `value` tokens are moved from one account (`from`) to another (`to`). Note that `value` may be zero."
      }
    },
    "kind": "dev",
    "methods": {
      "allowance(address,address)": {
        "details": "See {IERC20-allowance}."
      },
      "approve(address,uint256)": {
        "details": "See {IERC20-approve}. NOTE: If `value` is the maximum `uint256`, the allowance is not updated on `transferFrom`. This is semantically equivalent to an infinite approval. Requirements: - `spender` cannot be the zero address."
      },
      "balanceOf(address)": {
        "details": "See {IERC20-balanceOf}."
      },
      "decimals()": {
        "details": "Returns the number of decimals used to get its user representation. For example, if `decimals` equals `2`, a balance of `505` tokens should be displayed to a user as `5.05` (`505 / 10 ** 2`). Tokens usually opt for a value of 18, imitating the relationship between Ether and Wei. This is the default value returned by this function, unless it's overridden. NOTE: This information is only used for _display_ purposes: it in no way affects any of the arithmetic of the contract, including {IERC20-balanceOf} and {IERC20-transfer}."
      },
      "name()": {
        "details": "Returns the name of the token."
      },
      "symbol()": {
        "details": "Returns the symbol of the token, usually a shorter version of the name."
      },
      "totalSupply()": {
        "details": "See {IERC20-totalSupply}."
      },
      "transfer(address,uint256)": {
        "details": "See {IERC20-transfer}. Requirements: - `to` cannot be the zero address. - the caller must have a balance of at least `value`."
      },
      "transferFrom(address,address,uint256)": {
        "details": "See {IERC20-transferFrom}. Emits an {Approval} event indicating the updated allowance. This is not required by the EIP. See the note at the beginning of {ERC20}. NOTE: Does not update the allowance if the current allowance is the maximum `uint256`. Requirements: - `from` and `to` cannot be the zero address. - `from` must have a balance of at least `value`. - the caller must have allowance for ``from``'s tokens of at least `value`."
      }
    },
    "version": 1
  },
  "userdoc": {
    "kind": "user",
    "methods": {},
    "version": 1
  }
}